{
  "_format": "hh-sol-artifact-1",
  "contractName": "TokenPriceConsumer",
  "sourceName": "contracts/TokenPriceConsumer.sol",
  "abi": [
    {
      "inputs": [],
      "stateMutability": "nonpayable",
      "type": "constructor"
    },
    {
      "inputs": [
        {
          "internalType": "int256",
          "name": "tokenPriceInUSDC",
          "type": "int256"
        },
        {
          "internalType": "address",
          "name": "_quote",
          "type": "address"
        },
        {
          "internalType": "uint8",
          "name": "_decimals",
          "type": "uint8"
        }
      ],
      "name": "getDerivedPrice",
      "outputs": [
        {
          "internalType": "int256",
          "name": "",
          "type": "int256"
        }
      ],
      "stateMutability": "view",
      "type": "function"
    },
    {
      "inputs": [],
      "name": "getLatestETHPrice",
      "outputs": [
        {
          "internalType": "int256",
          "name": "",
          "type": "int256"
        }
      ],
      "stateMutability": "view",
      "type": "function"
    },
    {
      "inputs": [],
      "name": "getLatestUSDCPrice",
      "outputs": [
        {
          "internalType": "int256",
          "name": "",
          "type": "int256"
        }
      ],
      "stateMutability": "view",
      "type": "function"
    }
  ],
  "bytecode": "0x608060405234801561001057600080fd5b50739211c6b3bf41a10f78539810cf5c64e1bb78ec606000806101000a81548173ffffffffffffffffffffffffffffffffffffffff021916908373ffffffffffffffffffffffffffffffffffffffff160217905550739326bfa02add2366b30bacb125260af641031331600160006101000a81548173ffffffffffffffffffffffffffffffffffffffff021916908373ffffffffffffffffffffffffffffffffffffffff160217905550610bd0806100c96000396000f3fe608060405234801561001057600080fd5b50600436106100415760003560e01c8063777e0d86146100465780637f281a6414610064578063d0d6b9b214610082575b600080fd5b61004e6100b2565b60405161005b919061050c565b60405180910390f35b61006c610162565b604051610079919061050c565b60405180910390f35b61009c600480360381019061009791906105ef565b610210565b6040516100a9919061050c565b60405180910390f35b600080600160009054906101000a900473ffffffffffffffffffffffffffffffffffffffff1673ffffffffffffffffffffffffffffffffffffffff1663feaf968c6040518163ffffffff1660e01b815260040160a06040518083038186803b15801561011d57600080fd5b505afa158015610131573d6000803e3d6000fd5b505050506040513d601f19601f8201168201806040525081019061015591906106cf565b5050509150508091505090565b60008060008054906101000a900473ffffffffffffffffffffffffffffffffffffffff1673ffffffffffffffffffffffffffffffffffffffff1663feaf968c6040518163ffffffff1660e01b815260040160a06040518083038186803b1580156101cb57600080fd5b505afa1580156101df573d6000803e3d6000fd5b505050506040513d601f19601f8201168201806040525081019061020391906106cf565b5050509150508091505090565b60008060ff168260ff1611801561022e5750601260ff168260ff1611155b61026d576040517f08c379a0000000000000000000000000000000000000000000000000000000008152600401610264906107a7565b60405180910390fd5b60008260ff16600a61027f9190610929565b9050600085905060008060009054906101000a900473ffffffffffffffffffffffffffffffffffffffff1673ffffffffffffffffffffffffffffffffffffffff1663313ce5676040518163ffffffff1660e01b815260040160206040518083038186803b1580156102ef57600080fd5b505afa158015610303573d6000803e3d6000fd5b505050506040513d601f19601f820116820180604052508101906103279190610989565b9050610334828287610470565b915060008673ffffffffffffffffffffffffffffffffffffffff1663feaf968c6040518163ffffffff1660e01b815260040160a06040518083038186803b15801561037e57600080fd5b505afa158015610392573d6000803e3d6000fd5b505050506040513d601f19601f820116820180604052508101906103b691906106cf565b50505091505060008773ffffffffffffffffffffffffffffffffffffffff1663313ce5676040518163ffffffff1660e01b815260040160206040518083038186803b15801561040457600080fd5b505afa158015610418573d6000803e3d6000fd5b505050506040513d601f19601f8201168201806040525081019061043c9190610989565b9050610449828289610470565b915081858561045891906109b6565b6104629190610afc565b955050505050509392505050565b60008160ff168360ff1610156104ad57828261048c9190610b66565b60ff16600a61049b9190610929565b846104a691906109b6565b90506104ec565b8160ff168360ff1611156104e85781836104c79190610b66565b60ff16600a6104d69190610929565b846104e19190610afc565b90506104ec565b8390505b9392505050565b6000819050919050565b610506816104f3565b82525050565b600060208201905061052160008301846104fd565b92915050565b600080fd5b610535816104f3565b811461054057600080fd5b50565b6000813590506105528161052c565b92915050565b600073ffffffffffffffffffffffffffffffffffffffff82169050919050565b600061058382610558565b9050919050565b61059381610578565b811461059e57600080fd5b50565b6000813590506105b08161058a565b92915050565b600060ff82169050919050565b6105cc816105b6565b81146105d757600080fd5b50565b6000813590506105e9816105c3565b92915050565b60008060006060848603121561060857610607610527565b5b600061061686828701610543565b9350506020610627868287016105a1565b9250506040610638868287016105da565b9150509250925092565b600069ffffffffffffffffffff82169050919050565b61066181610642565b811461066c57600080fd5b50565b60008151905061067e81610658565b92915050565b6000815190506106938161052c565b92915050565b6000819050919050565b6106ac81610699565b81146106b757600080fd5b50565b6000815190506106c9816106a3565b92915050565b600080600080600060a086880312156106eb576106ea610527565b5b60006106f98882890161066f565b955050602061070a88828901610684565b945050604061071b888289016106ba565b935050606061072c888289016106ba565b925050608061073d8882890161066f565b9150509295509295909350565b600082825260208201905092915050565b7f496e76616c6964205f646563696d616c73000000000000000000000000000000600082015250565b600061079160118361074a565b915061079c8261075b565b602082019050919050565b600060208201905081810360008301526107c081610784565b9050919050565b7f4e487b7100000000000000000000000000000000000000000000000000000000600052601160045260246000fd5b60008160011c9050919050565b6000808291508390505b600185111561084d57808604811115610829576108286107c7565b5b60018516156108385780820291505b8081029050610846856107f6565b945061080d565b94509492505050565b6000826108665760019050610922565b816108745760009050610922565b816001811461088a5760028114610894576108c3565b6001915050610922565b60ff8411156108a6576108a56107c7565b5b8360020a9150848211156108bd576108bc6107c7565b5b50610922565b5060208310610133831016604e8410600b84101617156108f85782820a9050838111156108f3576108f26107c7565b5b610922565b6109058484846001610803565b9250905081840481111561091c5761091b6107c7565b5b81810290505b9392505050565b600061093482610699565b915061093f83610699565b925061096c7fffffffffffffffffffffffffffffffffffffffffffffffffffffffffffffffff8484610856565b905092915050565b600081519050610983816105c3565b92915050565b60006020828403121561099f5761099e610527565b5b60006109ad84828501610974565b91505092915050565b60006109c1826104f3565b91506109cc836104f3565b9250827f7fffffffffffffffffffffffffffffffffffffffffffffffffffffffffffffff0482116000841360008413161615610a0b57610a0a6107c7565b5b817f80000000000000000000000000000000000000000000000000000000000000000583126000841260008413161615610a4857610a476107c7565b5b827f80000000000000000000000000000000000000000000000000000000000000000582126000841360008412161615610a8557610a846107c7565b5b827f7fffffffffffffffffffffffffffffffffffffffffffffffffffffffffffffff0582126000841260008412161615610ac257610ac16107c7565b5b828202905092915050565b7f4e487b7100000000000000000000000000000000000000000000000000000000600052601260045260246000fd5b6000610b07826104f3565b9150610b12836104f3565b925082610b2257610b21610acd565b5b600160000383147f800000000000000000000000000000000000000000000000000000000000000083141615610b5b57610b5a6107c7565b5b828205905092915050565b6000610b71826105b6565b9150610b7c836105b6565b925082821015610b8f57610b8e6107c7565b5b82820390509291505056fea2646970667358221220d485e8f88c31b30b87ee63b8e5fc7952ae28a3280d94d0e9446e55e36db4a43564736f6c63430008090033",
  "linkReferences": {},
  "deployedLinkReferences": {}
}